{
	"data": {
		"bytecode": {
			"linkReferences": {},
			"object": "606060405260408051908101604052600e81527f48656c6c6f20576f726c642121210000000000000000000000000000000000006020820152600090805161004b92916020019061005c565b50341561005757600080fd5b6100f7565b828054600181600116156101000203166002900490600052602060002090601f016020900481019282601f1061009d57805160ff19168380011785556100ca565b828001600101855582156100ca579182015b828111156100ca5782518255916020019190600101906100af565b506100d69291506100da565b5090565b6100f491905b808211156100d657600081556001016100e0565b90565b610129806101066000396000f300606060405260043610603e5763ffffffff7c0100000000000000000000000000000000000000000000000000000000600035041663ef5fb05b81146043575b600080fd5b3415604d57600080fd5b60536055565b005b7fd5c61301da6e99da351877101cb79ff82c80447a22f656df7688959cf74d622360006040516020808252825460026000196101006001841615020190911604908201819052819060408201908490801560ed5780601f1060c35761010080835404028352916020019160ed565b820191906000526020600020905b81548152906001019060200180831160d157829003601f168201915b50509250505060405180910390a15600a165627a7a723058201aad8005ae4bd1063426e431e558a5ba91ebd344858065c2665f3ef0f0fcabaf0029",
			"opcodes": "PUSH1 0x60 PUSH1 0x40 MSTORE PUSH1 0x40 DUP1 MLOAD SWAP1 DUP2 ADD PUSH1 0x40 MSTORE PUSH1 0xE DUP2 MSTORE PUSH32 0x48656C6C6F20576F726C64212121000000000000000000000000000000000000 PUSH1 0x20 DUP3 ADD MSTORE PUSH1 0x0 SWAP1 DUP1 MLOAD PUSH2 0x4B SWAP3 SWAP2 PUSH1 0x20 ADD SWAP1 PUSH2 0x5C JUMP JUMPDEST POP CALLVALUE ISZERO PUSH2 0x57 JUMPI PUSH1 0x0 DUP1 REVERT JUMPDEST PUSH2 0xF7 JUMP JUMPDEST DUP3 DUP1 SLOAD PUSH1 0x1 DUP2 PUSH1 0x1 AND ISZERO PUSH2 0x100 MUL SUB AND PUSH1 0x2 SWAP1 DIV SWAP1 PUSH1 0x0 MSTORE PUSH1 0x20 PUSH1 0x0 KECCAK256 SWAP1 PUSH1 0x1F ADD PUSH1 0x20 SWAP1 DIV DUP2 ADD SWAP3 DUP3 PUSH1 0x1F LT PUSH2 0x9D JUMPI DUP1 MLOAD PUSH1 0xFF NOT AND DUP4 DUP1 ADD OR DUP6 SSTORE PUSH2 0xCA JUMP JUMPDEST DUP3 DUP1 ADD PUSH1 0x1 ADD DUP6 SSTORE DUP3 ISZERO PUSH2 0xCA JUMPI SWAP2 DUP3 ADD JUMPDEST DUP3 DUP2 GT ISZERO PUSH2 0xCA JUMPI DUP3 MLOAD DUP3 SSTORE SWAP2 PUSH1 0x20 ADD SWAP2 SWAP1 PUSH1 0x1 ADD SWAP1 PUSH2 0xAF JUMP JUMPDEST POP PUSH2 0xD6 SWAP3 SWAP2 POP PUSH2 0xDA JUMP JUMPDEST POP SWAP1 JUMP JUMPDEST PUSH2 0xF4 SWAP2 SWAP1 JUMPDEST DUP1 DUP3 GT ISZERO PUSH2 0xD6 JUMPI PUSH1 0x0 DUP2 SSTORE PUSH1 0x1 ADD PUSH2 0xE0 JUMP JUMPDEST SWAP1 JUMP JUMPDEST PUSH2 0x129 DUP1 PUSH2 0x106 PUSH1 0x0 CODECOPY PUSH1 0x0 RETURN STOP PUSH1 0x60 PUSH1 0x40 MSTORE PUSH1 0x4 CALLDATASIZE LT PUSH1 0x3E JUMPI PUSH4 0xFFFFFFFF PUSH29 0x100000000000000000000000000000000000000000000000000000000 PUSH1 0x0 CALLDATALOAD DIV AND PUSH4 0xEF5FB05B DUP2 EQ PUSH1 0x43 JUMPI JUMPDEST PUSH1 0x0 DUP1 REVERT JUMPDEST CALLVALUE ISZERO PUSH1 0x4D JUMPI PUSH1 0x0 DUP1 REVERT JUMPDEST PUSH1 0x53 PUSH1 0x55 JUMP JUMPDEST STOP JUMPDEST PUSH32 0xD5C61301DA6E99DA351877101CB79FF82C80447A22F656DF7688959CF74D6223 PUSH1 0x0 PUSH1 0x40 MLOAD PUSH1 0x20 DUP1 DUP3 MSTORE DUP3 SLOAD PUSH1 0x2 PUSH1 0x0 NOT PUSH2 0x100 PUSH1 0x1 DUP5 AND ISZERO MUL ADD SWAP1 SWAP2 AND DIV SWAP1 DUP3 ADD DUP2 SWAP1 MSTORE DUP2 SWAP1 PUSH1 0x40 DUP3 ADD SWAP1 DUP5 SWAP1 DUP1 ISZERO PUSH1 0xED JUMPI DUP1 PUSH1 0x1F LT PUSH1 0xC3 JUMPI PUSH2 0x100 DUP1 DUP4 SLOAD DIV MUL DUP4 MSTORE SWAP2 PUSH1 0x20 ADD SWAP2 PUSH1 0xED JUMP JUMPDEST DUP3 ADD SWAP2 SWAP1 PUSH1 0x0 MSTORE PUSH1 0x20 PUSH1 0x0 KECCAK256 SWAP1 JUMPDEST DUP2 SLOAD DUP2 MSTORE SWAP1 PUSH1 0x1 ADD SWAP1 PUSH1 0x20 ADD DUP1 DUP4 GT PUSH1 0xD1 JUMPI DUP3 SWAP1 SUB PUSH1 0x1F AND DUP3 ADD SWAP2 JUMPDEST POP POP SWAP3 POP POP POP PUSH1 0x40 MLOAD DUP1 SWAP2 SUB SWAP1 LOG1 JUMP STOP LOG1 PUSH6 0x627A7A723058 KECCAK256 BYTE 0xad DUP1 SDIV 0xae 0x4b 0xd1 MOD CALLVALUE 0x26 0xe4 BALANCE 0xe5 PC 0xa5 0xba SWAP2 0xeb 0xd3 DIFFICULTY DUP6 DUP1 PUSH6 0xC2665F3EF0F0 0xfc 0xab 0xaf STOP 0x29 "
		},
		"gasEstimates": {
			"creation": {
				"codeDepositCost": "59400",
				"executionCost": "infinite",
				"totalCost": "infinite"
			},
			"external": {
				"sayHello()": "infinite"
			}
		},
		"methodIdentifiers": {
			"sayHello()": "ef5fb05b"
		}
	},
	"abi": [
		{
			"constant": false,
			"inputs": [],
			"name": "sayHello",
			"outputs": [],
			"payable": false,
			"stateMutability": "nonpayable",
			"type": "function"
		},
		{
			"anonymous": false,
			"inputs": [
				{
					"indexed": false,
					"name": "_value",
					"type": "string"
				}
			],
			"name": "say",
			"type": "event"
		}
	]
}